{
  "_format": "hh-sol-artifact-1",
  "contractName": "PoseidonSMT",
  "sourceName": "contracts/state/PoseidonSMT.sol",
  "abi": [
    {
      "inputs": [],
      "stateMutability": "nonpayable",
      "type": "constructor"
    },
    {
      "inputs": [
        {
          "internalType": "address",
          "name": "target",
          "type": "address"
        }
      ],
      "name": "AddressEmptyCode",
      "type": "error"
    },
    {
      "inputs": [
        {
          "internalType": "address",
          "name": "implementation",
          "type": "address"
        }
      ],
      "name": "ERC1967InvalidImplementation",
      "type": "error"
    },
    {
      "inputs": [],
      "name": "ERC1967NonPayable",
      "type": "error"
    },
    {
      "inputs": [],
      "name": "FailedCall",
      "type": "error"
    },
    {
      "inputs": [],
      "name": "InvalidInitialization",
      "type": "error"
    },
    {
      "inputs": [
        {
          "internalType": "bytes32",
          "name": "key",
          "type": "bytes32"
        }
      ],
      "name": "KeyAlreadyExists",
      "type": "error"
    },
    {
      "inputs": [
        {
          "internalType": "bytes32",
          "name": "currentKey",
          "type": "bytes32"
        },
        {
          "internalType": "bytes32",
          "name": "key",
          "type": "bytes32"
        }
      ],
      "name": "LeafDoesNotMatch",
      "type": "error"
    },
    {
      "inputs": [
        {
          "internalType": "uint32",
          "name": "maxDepth",
          "type": "uint32"
        }
      ],
      "name": "MaxDepthExceedsHardCap",
      "type": "error"
    },
    {
      "inputs": [],
      "name": "MaxDepthIsZero",
      "type": "error"
    },
    {
      "inputs": [],
      "name": "MaxDepthReached",
      "type": "error"
    },
    {
      "inputs": [
        {
          "internalType": "uint32",
          "name": "currentDepth",
          "type": "uint32"
        },
        {
          "internalType": "uint32",
          "name": "newDepth",
          "type": "uint32"
        }
      ],
      "name": "NewMaxDepthMustBeLarger",
      "type": "error"
    },
    {
      "inputs": [
        {
          "internalType": "uint256",
          "name": "nodeId",
          "type": "uint256"
        }
      ],
      "name": "NodeDoesNotExist",
      "type": "error"
    },
    {
      "inputs": [],
      "name": "NotInitializing",
      "type": "error"
    },
    {
      "inputs": [],
      "name": "TreeAlreadyInitialized",
      "type": "error"
    },
    {
      "inputs": [],
      "name": "TreeIsNotEmpty",
      "type": "error"
    },
    {
      "inputs": [],
      "name": "TreeNotInitialized",
      "type": "error"
    },
    {
      "inputs": [],
      "name": "UUPSUnauthorizedCallContext",
      "type": "error"
    },
    {
      "inputs": [
        {
          "internalType": "bytes32",
          "name": "slot",
          "type": "bytes32"
        }
      ],
      "name": "UUPSUnsupportedProxiableUUID",
      "type": "error"
    },
    {
      "anonymous": false,
      "inputs": [
        {
          "indexed": false,
          "internalType": "uint64",
          "name": "version",
          "type": "uint64"
        }
      ],
      "name": "Initialized",
      "type": "event"
    },
    {
      "anonymous": false,
      "inputs": [
        {
          "indexed": false,
          "internalType": "bytes32",
          "name": "root",
          "type": "bytes32"
        }
      ],
      "name": "RootUpdated",
      "type": "event"
    },
    {
      "anonymous": false,
      "inputs": [
        {
          "indexed": true,
          "internalType": "address",
          "name": "implementation",
          "type": "address"
        }
      ],
      "name": "Upgraded",
      "type": "event"
    },
    {
      "inputs": [],
      "name": "ROOT_VALIDITY",
      "outputs": [
        {
          "internalType": "uint256",
          "name": "",
          "type": "uint256"
        }
      ],
      "stateMutability": "view",
      "type": "function"
    },
    {
      "inputs": [],
      "name": "UPGRADE_INTERFACE_VERSION",
      "outputs": [
        {
          "internalType": "string",
          "name": "",
          "type": "string"
        }
      ],
      "stateMutability": "view",
      "type": "function"
    },
    {
      "inputs": [
        {
          "internalType": "address",
          "name": "stateKeeper_",
          "type": "address"
        },
        {
          "internalType": "address",
          "name": "evidenceRegistry_",
          "type": "address"
        },
        {
          "internalType": "uint256",
          "name": "treeHeight_",
          "type": "uint256"
        }
      ],
      "name": "__PoseidonSMT_init",
      "outputs": [],
      "stateMutability": "nonpayable",
      "type": "function"
    },
    {
      "inputs": [
        {
          "internalType": "bytes32",
          "name": "keyOfElement_",
          "type": "bytes32"
        },
        {
          "internalType": "bytes32",
          "name": "element_",
          "type": "bytes32"
        }
      ],
      "name": "add",
      "outputs": [],
      "stateMutability": "nonpayable",
      "type": "function"
    },
    {
      "inputs": [],
      "name": "evidenceRegistry",
      "outputs": [
        {
          "internalType": "address",
          "name": "",
          "type": "address"
        }
      ],
      "stateMutability": "view",
      "type": "function"
    },
    {
      "inputs": [
        {
          "internalType": "bytes32",
          "name": "key_",
          "type": "bytes32"
        }
      ],
      "name": "getNodeByKey",
      "outputs": [
        {
          "components": [
            {
              "internalType": "enum SparseMerkleTree.NodeType",
              "name": "nodeType",
              "type": "uint8"
            },
            {
              "internalType": "uint64",
              "name": "childLeft",
              "type": "uint64"
            },
            {
              "internalType": "uint64",
              "name": "childRight",
              "type": "uint64"
            },
            {
              "internalType": "bytes32",
              "name": "nodeHash",
              "type": "bytes32"
            },
            {
              "internalType": "bytes32",
              "name": "key",
              "type": "bytes32"
            },
            {
              "internalType": "bytes32",
              "name": "value",
              "type": "bytes32"
            }
          ],
          "internalType": "struct SparseMerkleTree.Node",
          "name": "",
          "type": "tuple"
        }
      ],
      "stateMutability": "view",
      "type": "function"
    },
    {
      "inputs": [
        {
          "internalType": "bytes32",
          "name": "key_",
          "type": "bytes32"
        }
      ],
      "name": "getProof",
      "outputs": [
        {
          "components": [
            {
              "internalType": "bytes32",
              "name": "root",
              "type": "bytes32"
            },
            {
              "internalType": "bytes32[]",
              "name": "siblings",
              "type": "bytes32[]"
            },
            {
              "internalType": "bool",
              "name": "existence",
              "type": "bool"
            },
            {
              "internalType": "bytes32",
              "name": "key",
              "type": "bytes32"
            },
            {
              "internalType": "bytes32",
              "name": "value",
              "type": "bytes32"
            },
            {
              "internalType": "bool",
              "name": "auxExistence",
              "type": "bool"
            },
            {
              "internalType": "bytes32",
              "name": "auxKey",
              "type": "bytes32"
            },
            {
              "internalType": "bytes32",
              "name": "auxValue",
              "type": "bytes32"
            }
          ],
          "internalType": "struct SparseMerkleTree.Proof",
          "name": "",
          "type": "tuple"
        }
      ],
      "stateMutability": "view",
      "type": "function"
    },
    {
      "inputs": [],
      "name": "getRoot",
      "outputs": [
        {
          "internalType": "bytes32",
          "name": "",
          "type": "bytes32"
        }
      ],
      "stateMutability": "view",
      "type": "function"
    },
    {
      "inputs": [],
      "name": "implementation",
      "outputs": [
        {
          "internalType": "address",
          "name": "",
          "type": "address"
        }
      ],
      "stateMutability": "view",
      "type": "function"
    },
    {
      "inputs": [
        {
          "internalType": "bytes32",
          "name": "root_",
          "type": "bytes32"
        }
      ],
      "name": "isRootLatest",
      "outputs": [
        {
          "internalType": "bool",
          "name": "",
          "type": "bool"
        }
      ],
      "stateMutability": "view",
      "type": "function"
    },
    {
      "inputs": [
        {
          "internalType": "bytes32",
          "name": "root_",
          "type": "bytes32"
        }
      ],
      "name": "isRootValid",
      "outputs": [
        {
          "internalType": "bool",
          "name": "",
          "type": "bool"
        }
      ],
      "stateMutability": "view",
      "type": "function"
    },
    {
      "inputs": [],
      "name": "proxiableUUID",
      "outputs": [
        {
          "internalType": "bytes32",
          "name": "",
          "type": "bytes32"
        }
      ],
      "stateMutability": "view",
      "type": "function"
    },
    {
      "inputs": [
        {
          "internalType": "bytes32",
          "name": "keyOfElement_",
          "type": "bytes32"
        }
      ],
      "name": "remove",
      "outputs": [],
      "stateMutability": "nonpayable",
      "type": "function"
    },
    {
      "inputs": [],
      "name": "stateKeeper",
      "outputs": [
        {
          "internalType": "address",
          "name": "",
          "type": "address"
        }
      ],
      "stateMutability": "view",
      "type": "function"
    },
    {
      "inputs": [
        {
          "internalType": "bytes32",
          "name": "keyOfElement_",
          "type": "bytes32"
        },
        {
          "internalType": "bytes32",
          "name": "newElement_",
          "type": "bytes32"
        }
      ],
      "name": "update",
      "outputs": [],
      "stateMutability": "nonpayable",
      "type": "function"
    },
    {
      "inputs": [
        {
          "internalType": "address",
          "name": "newImplementation",
          "type": "address"
        },
        {
          "internalType": "bytes",
          "name": "data",
          "type": "bytes"
        }
      ],
      "name": "upgradeToAndCall",
      "outputs": [],
      "stateMutability": "payable",
      "type": "function"
    }
  ],
  "bytecode": "0x60a06040523060805234801561001457600080fd5b5061001d610022565b6100d4565b7ff0c57e16840df040f15088dc2f81fe391c3923bec73e23a9662efc9c229c6a00805468010000000000000000900460ff16156100725760405163f92ee8a960e01b815260040160405180910390fd5b80546001600160401b03908116146100d15780546001600160401b0319166001600160401b0390811782556040519081527fc7f505b2f371ae2175ee4913f4499e1f2633a7b5936321eed1cdaeb6115181d29060200160405180910390a15b50565b6080516127596100fd600039600081816107580152818161078101526108c201526127596000f3fe6080604052600436106100f35760003560e01c80638492307f1161008a578063ad3cb1cc11610059578063ad3cb1cc146102a5578063c3e6f8f9146102e3578063cffe967614610303578063d1de592a1461031957600080fd5b80638492307f1461022557806395272e6d1461024557806395bc267314610265578063a87554551461028557600080fd5b80634f1ef286116100c65780634f1ef286146101ad57806352d1902d146101c05780635c60da1b146101e35780635ca1e1651461021057600080fd5b8063083a8580146100f857806313f57c3e1461012e5780631b80bb3a1461015057806330ef41b41461017d575b600080fd5b34801561010457600080fd5b50610118610113366004612282565b610339565b60405161012591906122b1565b60405180910390f35b34801561013a57600080fd5b5061014e610149366004612324565b610352565b005b34801561015c57600080fd5b5061017061016b366004612282565b61037a565b6040516101259190612346565b34801561018957600080fd5b5061019d610198366004612282565b61038d565b6040519015158152602001610125565b61014e6101bb366004612427565b6103d0565b3480156101cc57600080fd5b506101d56103eb565b604051908152602001610125565b3480156101ef57600080fd5b506101f8610408565b6040516001600160a01b039091168152602001610125565b34801561021c57600080fd5b506101d561042e565b34801561023157600080fd5b5061019d610240366004612282565b61043a565b34801561025157600080fd5b506001546101f8906001600160a01b031681565b34801561027157600080fd5b5061014e610280366004612282565b61044e565b34801561029157600080fd5b5061014e6102a03660046124ee565b610474565b3480156102b157600080fd5b506102d6604051806040016040528060058152602001640352e302e360dc1b81525081565b604051610125919061254e565b3480156102ef57600080fd5b506000546101f8906001600160a01b031681565b34801561030f57600080fd5b506101d5610e1081565b34801561032557600080fd5b5061014e610334366004612324565b6105c6565b6103416121fe565b61034c6003836105e2565b92915050565b61035a6105fb565b61036261065c565b61036e6003838361067e565b61037661068e565b5050565b610382612235565b61034c60038361073b565b60008161039c57506000919050565b6103a58261043a565b8061034c575060008281526002602052604090205442906103c990610e1090612597565b1192915050565b6103d861074d565b6103e1826107f2565b61037682826107fa565b60006103f56108b7565b5060008051602061270483398151915290565b6000610429600080516020612704833981519152546001600160a01b031690565b905090565b60006104296003610900565b6000816104476003610900565b1492915050565b6104566105fb565b61045e61065c565b610469600382610926565b61047161068e565b50565b7ff0c57e16840df040f15088dc2f81fe391c3923bec73e23a9662efc9c229c6a008054600160401b810460ff1615906001600160401b03166000811580156104b95750825b90506000826001600160401b031660011480156104d55750303b155b9050811580156104e3575080155b156105015760405163f92ee8a960e01b815260040160405180910390fd5b845467ffffffffffffffff19166001178555831561052b57845460ff60401b1916600160401b1785555b610536600387610930565b610546600361093a6109c5610a5f565b600080546001600160a01b03808b166001600160a01b03199283161790925560018054928a169290911691909117905583156105bc57845460ff60401b19168555604051600181527fc7f505b2f371ae2175ee4913f4499e1f2633a7b5936321eed1cdaeb6115181d29060200160405180910390a15b5050505050505050565b6105ce6105fb565b6105d661065c565b61036e60038383610a6a565b6105ea6121fe565b6105f48383610a75565b9392505050565b6000546001600160a01b0316331461065a5760405162461bcd60e51b815260206004820152601f60248201527f506f736569646f6e534d543a206e6f742061207374617465206b65657065720060448201526064015b60405180910390fd5b565b426002600061066b6003610900565b8152602081019190915260400160002055565b610689838383610c11565b505050565b600061069a6003610900565b600154604051633751628760e21b8152600481018390524260248201529192506001600160a01b03169063dd458a1c90604401600060405180830381600087803b1580156106e757600080fd5b505af11580156106fb573d6000803e3d6000fd5b505050507f2cbc14f49c068133583f7cb530018af451c87c1cf1327cf2a4ff4698c4730aa48160405161073091815260200190565b60405180910390a150565b610743612235565b6105f48383610c98565b306001600160a01b037f00000000000000000000000000000000000000000000000000000000000000001614806107d457507f00000000000000000000000000000000000000000000000000000000000000006001600160a01b03166107c8600080516020612704833981519152546001600160a01b031690565b6001600160a01b031614155b1561065a5760405163703e46dd60e11b815260040160405180910390fd5b610471610eea565b816001600160a01b03166352d1902d6040518163ffffffff1660e01b8152600401602060405180830381865afa925050508015610854575060408051601f3d908101601f19168201909252610851918101906125aa565b60015b61087c57604051634c9c8ce360e01b81526001600160a01b0383166004820152602401610651565b60008051602061270483398151915281146108ad57604051632a87526960e21b815260048101829052602401610651565b6106898383610fa2565b306001600160a01b037f0000000000000000000000000000000000000000000000000000000000000000161461065a5760405163703e46dd60e11b815260040160405180910390fd5b6001808201546001600160401b031660009081526020839052604081209091015461034c565b6103768282610ff8565b610376828261106f565b6040805180820182528381526020810183905290516314d2f97b60e11b815260009173__$fd835ae95726e2da80b3c026db35133873$__916329a5f2f691610984916004016125c3565b602060405180830381865af41580156109a1573d6000803e3d6000fd5b505050506040513d601f19601f820116820180604052508101906105f491906125aa565b604080516060810182528481526020810184905280820183905290516304b98e1d60e31b815260009173__$e42d85122f6128c9a7dd8478ad2c48bccc$__916325cc70e891610a16916004016125f4565b602060405180830381865af4158015610a33573d6000803e3d6000fd5b505050506040513d601f19601f82011682018060405250810190610a5791906125aa565b949350505050565b6106898383836110a9565b61068983838361111f565b610a7d6121fe565b610a856121fe565b60018401546001600160401b031660005b6001860154600160c01b900463ffffffff168111610bc15760008281526020879052604090819020815160c081019092528054829060ff166002811115610adf57610adf61229b565b6002811115610af057610af061229b565b815281546001600160401b03610100820481166020840152600160481b909104166040820152600182015460608201526002820154608082015260039091015460a0909101529250600083516002811115610b4d57610b4d61229b565b14610bc157600183516002811115610b6757610b6761229b565b03610b7c5760808301518514610bc157610baf565b600185821c81169003610b9e5782604001516001600160401b03169150610baf565b82602001516001600160401b031691505b80610bb98161261c565b915050610a96565b5083826080015114610c06576040805160c08101909152806000815260006020820181905260408201819052606082018190526080820181905260a090910152610c08565b815b95945050505050565b60018301548390600160c01b900463ffffffff16610c4257604051635fba374760e11b815260040160405180910390fd5b6040805160c0810182526001808252600060208301819052928201839052606082018390526080820186905260a082018590528601549091610c9191879184916001600160401b0316906111ca565b5050505050565b610ca0612235565b60018381015460408051610100810182526001600160401b0383166000908152602088905291822090930154600160c01b90920463ffffffff1692909181908152602001836001600160401b03811115610cfc57610cfc612411565b604051908082528060200260200182016040528015610d25578160200160208202803683370190505b50815260006020820181905260408201879052606082018190526080820181905260a0820181905260c0909101529050610d5d6121fe565b60018601546001600160401b031660005b848111610ede57610d7f8883611406565b9250600083516002811115610d9657610d9661229b565b14610ede57600183516002811115610db057610db061229b565b03610e04578360600151836080015103610dda576001604085015260a08301516080850152610ede565b600160a08086019190915260808085015160c0870152908401805160e08701525190850152610ede565b6060840151600190821c81169003610e735782604001516001600160401b0316915087600001600084602001516001600160401b031681526020019081526020016000206001015484602001518281518110610e6257610e62612635565b602002602001018181525050610ecc565b82602001516001600160401b0316915087600001600084604001516001600160401b031681526020019081526020016000206001015484602001518281518110610ebf57610ebf612635565b6020026020010181815250505b80610ed68161261c565b915050610d6e565b50919695505050505050565b6000546040516317aa5fb760e11b81523360048201526001600160a01b0390911690632f54bf6e90602401602060405180830381865afa158015610f32573d6000803e3d6000fd5b505050506040513d601f19601f82011682018060405250810190610f56919061264b565b61065a5760405162461bcd60e51b815260206004820152601960248201527f506f736569646f6e534d543a206e6f7420616e206f776e6572000000000000006044820152606401610651565b610fab8261149e565b6040516001600160a01b038316907fbc7cd75a20ee27fd9adebab32041f755214dbc6bffa90cc0225b39da2e5c2d3b90600090a2805115610ff0576106898282611503565b610376611570565b60018201548290600160c01b900463ffffffff1661102957604051635fba374760e11b815260040160405180910390fd5b600183015461104690849084906001600160401b0316600061158f565b600193909301805467ffffffffffffffff19166001600160401b03909416939093179092555050565b6001820154600160c01b900463ffffffff161561109f5760405163118a8e6360e01b815260040160405180910390fd5b61037682826119d7565b6110b283611a9f565b156110d0576040516309d94d8160e01b815260040160405180910390fd5b60018301805460ff60e01b1916600160e01b179055600290920180546001600160401b03938416600160401b026fffffffffffffffffffffffffffffffff199091169390921692909217179055565b60018301548390600160c01b900463ffffffff1661115057604051635fba374760e11b815260040160405180910390fd5b6040805160c0810182526001808252600060208301819052928201839052606082018390526080820186905260a08201859052860154909161119f91879184916001600160401b031690611ad9565b600195909501805467ffffffffffffffff19166001600160401b039096169590951790945550505050565b600082815260208590526040808220815160c081019092528054829060ff1660028111156111fa576111fa61229b565b600281111561120b5761120b61229b565b815281546001600160401b03610100820481166020840152600160481b909104166040820152600182015460608201526002820154608082015260039091015460a09091015290506000815160028111156112685761126861229b565b0361128957604051634c08d8db60e01b815260048101849052602401610651565b60018151600281111561129e5761129e61229b565b0361137e5783608001518160800151146112de576080808201519085015160405163d3013d8b60e01b815260048101929092526024820152604401610651565b60008381526020869052604090208451815486929190829060ff1916600183600281111561130e5761130e61229b565b02179055506020820151815460408401516001600160401b03908116600160481b0267ffffffffffffffff60481b19919093166101000216610100600160881b031990911617178155606082015160018201556080820151600282015560a09091015160039091015550826113e1565b8161ffff16846080015160001c901c6001166001036113c1576113bc858583604001516001600160401b03168560016113b7919061266d565b6111ca565b6113e1565b6113e1858583602001516001600160401b03168560016113b7919061266d565b6113eb8582611d07565b60009384526020959095525050604090206001019190915550565b61140e6121fe565b60008281526020849052604090819020815160c081019092528054829060ff16600281111561143f5761143f61229b565b60028111156114505761145061229b565b815281546001600160401b03610100820481166020840152600160481b909104166040820152600182015460608201526002820154608082015260039091015460a090910152905092915050565b806001600160a01b03163b6000036114d457604051634c9c8ce360e01b81526001600160a01b0382166004820152602401610651565b60008051602061270483398151915280546001600160a01b0319166001600160a01b0392909216919091179055565b6060600080846001600160a01b0316846040516115209190612687565b600060405180830381855af49150503d806000811461155b576040519150601f19603f3d011682016040523d82523d6000602084013e611560565b606091505b5091509150610c08858383611e03565b341561065a5760405163b398979f60e01b815260040160405180910390fd5b600082815260208590526040808220815160c08101909252805483929190829060ff1660028111156115c3576115c361229b565b60028111156115d4576115d461229b565b815281546001600160401b03610100820481166020840152600160481b909104166040820152600182015460608201526002820154608082015260039091015460a09091015290506000815160028111156116315761163161229b565b0361165257604051634c08d8db60e01b815260048101859052602401610651565b6001815160028111156116675761166761229b565b036116b457848160800151146116a057608081015160405163d3013d8b60e01b8152600481019190915260248101869052604401610651565b6116aa8685611e5f565b5060009050610a57565b6000600161ffff851687901c811690036116f4576116ed878784604001516001600160401b03168760016116e8919061266d565b61158f565b9050611717565b611714878784602001516001600160401b03168760016116e8919061266d565b90505b6040808301516001600160401b03908116600090815260208a8152838220549086015190921681529182205460ff9182169291169082600281111561175e5761175e61229b565b14801561177c5750600081600281111561177a5761177a61229b565b145b156117975761178b8988611e5f565b82945050505050610a57565b600083815260208a9052604081205460ff16908360028111156117bc576117bc61229b565b14806117d9575060008260028111156117d7576117d761229b565b145b80156117f7575060028160028111156117f4576117f461229b565b14155b156119225760008160028111156118105761181061229b565b1480156118495750600182600281111561182c5761182c61229b565b1480611849575060018360028111156118475761184761229b565b145b156118a5576118588a89611e5f565b600183600281111561186c5761186c61229b565b0361188b5784604001516001600160401b031695505050505050610a57565b84602001516001600160401b031695505050505050610a57565b60008360028111156118b9576118b961229b565b036118f457600088815260208b905260409020805467ffffffffffffffff60481b1916600160481b6001600160401b03871602179055611922565b600088815260208b905260409020805468ffffffffffffffff0019166101006001600160401b038716021790555b600088815260208b9052604090819020815160c0810190925280546119b7928d929091829060ff16600281111561195b5761195b61229b565b600281111561196c5761196c61229b565b815281546001600160401b03610100820481166020840152600160481b909104166040820152600182015460608201526002820154608082015260039091015460a090910152611d07565b600089815260208c9052604090206001015550869450610a579350505050565b8063ffffffff166000036119fe5760405163e758517760e01b815260040160405180910390fd5b600182015463ffffffff600160c01b90910481169082168110611a445760405163792925d760e11b815263ffffffff808316600483015283166024820152604401610651565b61010063ffffffff83161115611a7557604051631369347d60e21b815263ffffffff83166004820152602401610651565b506001909101805463ffffffff909216600160c01b0263ffffffff60c01b19909216919091179055565b6001810154600090611aca906001600160401b03600160801b8204811691600160401b9004166126a3565b6001600160401b031692915050565b600082815260208590526040808220815160c08101909252805483929190829060ff166002811115611b0d57611b0d61229b565b6002811115611b1e57611b1e61229b565b815281546001600160401b03610100820481166020840152600160481b909104166040820152600182015460608201526002820154608082015260039091015460a0909101529050600081516002811115611b7b57611b7b61229b565b03611b9257611b8a8686611ee5565b915050610a57565b600181516002811115611ba757611ba761229b565b03611be9578460800151816080015103611bdc5784608001516040516361db108160e01b815260040161065191815260200190565b611b8a8686838787611fdd565b60008361ffff16866080015160001c901c600116600103611c6157611c29878784604001516001600160401b0316876001611c24919061266d565b611ad9565b6000868152602089905260409020805467ffffffffffffffff60481b1916600160481b6001600160401b038416021790559050611cb1565b611c81878784602001516001600160401b0316876001611c24919061266d565b6000868152602089905260409020805468ffffffffffffffff0019166101006001600160401b0384160217905590505b60008581526020889052604090819020815160c081019092528054611cea928a929091829060ff16600281111561195b5761195b61229b565b60008681526020899052604090206001015550839150610a579050565b600182015460009061227a90600160e01b900460ff16611d29576121ac611d3f565b6002840154801561227a02176001600160401b03165b600185015490915061227a90600160e01b900460ff16611d61576121bb611d81565b8460020160089054906101000a9004801561227a02176001600160401b03165b9050600184516002811115611d9857611d9861229b565b03611dc157611db884608001518560a00151600160001b8463ffffffff16565b9250505061034c565b6020808501516001600160401b039081166000908152918790526040808320600190810154828901519093168452922090910154610c08919063ffffffff8516565b606082611e1857611e13826121d5565b6105f4565b8151158015611e2f57506001600160a01b0384163b155b15611e5857604051639996b31560e01b81526001600160a01b0385166004820152602401610651565b50806105f4565b6000818152602083905260408120805470ffffffffffffffffffffffffffffffffff1916815560018082018390556002820183905560039091019190915582018054601090611ebd90600160801b90046001600160401b03166126c2565b91906101000a8154816001600160401b0302191690836001600160401b031602179055505050565b6000611ef18383611d07565b606083015260018301805460009190600890611f1c90600160401b90046001600160401b03166126c2565b82546001600160401b039182166101009390930a83810292021916179091556000818152602086905260409020845181549293508592829060ff19166001836002811115611f6c57611f6c61229b565b02179055506020820151815460408401516001600160401b03908116600160481b0267ffffffffffffffff60481b19919093166101000216610100600160881b031990911617178155606082015160018201556080820151600282015560a090910151600390910155905092915050565b6001850154600090600160c01b900463ffffffff1661ffff83161061201557604051633977650160e01b815260040160405180910390fd5b61201d6121fe565b60808087015190860151600161ffff861692831c81168114929190911c8116148082036120fc57600061205d8a8a8a8a6120588b600161266d565b611fdd565b905082156120a8576040805160c0810190915280600281526000602082018190526001600160401b0384166040830152606082018190526080820181905260a09091015293506120e7565b6040805160c0810190915280600281526001600160401b0383166020820152600060408201819052606082018190526080820181905260a09091015293505b6120f18a85611ee5565b945050505050610c08565b60006121088a8a611ee5565b90508215612154576040805160c0810190915280600281526001600160401b03808a166020830152831660408201526000606082018190526080820181905260a0909101529350612194565b6040805160c0810190915280600281526001600160401b038084166020830152891660408201526000606082018190526080820181905260a09091015293505b61219e8a85611ee5565b9a9950505050505050505050565b60009182526020526040902090565b604080519384526020840192909252908201526060902090565b8051156121e55780518082602001fd5b60405163d6bda27560e01b815260040160405180910390fd5b6040805160c08101909152806000815260006020820181905260408201819052606082018190526080820181905260a09091015290565b604080516101008101825260008082526060602083018190529282018190529181018290526080810182905260a0810182905260c0810182905260e081019190915290565b61065a6126ed565b60006020828403121561229457600080fd5b5035919050565b634e487b7160e01b600052602160045260246000fd5b815160c0820190600381106122d657634e487b7160e01b600052602160045260246000fd5b808352506001600160401b0360208401511660208301526001600160401b036040840151166040830152606083015160608301526080830151608083015260a083015160a083015292915050565b6000806040838503121561233757600080fd5b50508035926020909101359150565b602080825282518282015282810151610100604084015280516101208401819052600092919091019082906101408501905b8083101561239b5783518252602082019150602084019350600183019250612378565b5060408601518015156060870152925060608601516080860152608086015160a086015260a086015192506123d460c086018415159052565b60c086015160e086015260e086015161010086015280935050505092915050565b80356001600160a01b038116811461240c57600080fd5b919050565b634e487b7160e01b600052604160045260246000fd5b6000806040838503121561243a57600080fd5b612443836123f5565b915060208301356001600160401b0381111561245e57600080fd5b8301601f8101851361246f57600080fd5b80356001600160401b0381111561248857612488612411565b604051601f8201601f19908116603f011681016001600160401b03811182821017156124b6576124b6612411565b6040528181528282016020018710156124ce57600080fd5b816020840160208301376000602083830101528093505050509250929050565b60008060006060848603121561250357600080fd5b61250c846123f5565b925061251a602085016123f5565b9150604084013590509250925092565b60005b8381101561254557818101518382015260200161252d565b50506000910152565b602081526000825180602084015261256d81604085016020870161252a565b601f01601f19169190910160400192915050565b634e487b7160e01b600052601160045260246000fd5b8082018082111561034c5761034c612581565b6000602082840312156125bc57600080fd5b5051919050565b60408101818360005b60028110156125eb5781518352602092830192909101906001016125cc565b50505092915050565b60608101818360005b60038110156125eb5781518352602092830192909101906001016125fd565b60006001820161262e5761262e612581565b5060010190565b634e487b7160e01b600052603260045260246000fd5b60006020828403121561265d57600080fd5b815180151581146105f457600080fd5b61ffff818116838216019081111561034c5761034c612581565b6000825161269981846020870161252a565b9190910192915050565b6001600160401b03828116828216039081111561034c5761034c612581565b60006001600160401b0382166001600160401b0381036126e4576126e4612581565b60010192915050565b634e487b7160e01b600052605160045260246000fdfe360894a13ba1a3210667c828492db98dca3e2076cc3735a920a3ca505d382bbca2646970667358221220a3e34f6bbb13cb7778acf56f065334b4d6ac6bb9e0118899c0bb70bd4384ee2064736f6c634300081c0033",
  "linkReferences": {
    "contracts/libraries/Poseidon.sol": {
      "PoseidonUnit2L": [
        {
          "length": 20,
          "start": 2651
        }
      ],
      "PoseidonUnit3L": [
        {
          "length": 20,
          "start": 2797
        }
      ]
    }
  },
  "deployedLinkReferences": {
    "contracts/libraries/Poseidon.sol": {
      "PoseidonUnit2L": [
        {
          "length": 20,
          "start": 2398
        }
      ],
      "PoseidonUnit3L": [
        {
          "length": 20,
          "start": 2544
        }
      ]
    }
  }
}